:100000000C9435000C945D000C945D000C945D0024
:100010000C945D000C945D000C945D000C945D00EC
:100020000C945D000C945D000C945D000C945D00DC
:100030000C945D000C945D000C945D000C945D00CC
:100040000C943A020C945D000C9408020C94E201AA
:100050000C945D000C945D000C945D000C945D00AC
:100060000C945D000C945D00FB0311241FBECFEFC8
:10007000D8E0DEBFCDBF15E0A0E0B1E0ECE1FDE0EF
:1000800002C005900D92A231B107D9F725E0A2E197
:10009000B5E001C01D92A83BB207E1F710E0C5E34F
:1000A000D0E004C02197FE010E948606C433D10728
:1000B000C9F70E9484020C948C060C940000AF9245
:1000C000BF92CF92DF92EF92FF920F931F93CF9345
:1000D000DF936C017B018B01040F151FEB015E01A7
:1000E000AE18BF08C017D10759F06991D601ED913C
:1000F000FC910190F081E02DC6010995892B79F7DB
:10010000C501DF91CF911F910F91FF90EF90DF908C
:10011000CF90BF90AF900895FC01538D448D252F53
:1001200030E0842F90E0821B930B541710F0CF9691
:10013000089501970895FC01918D828D981761F0C3
:10014000A28DAE0FBF2FB11D5D968C91928D9F5FDA
:100150009F73928F90E008958FEF9FEF0895FC01B9
:10016000918D828D981731F0828DE80FF11D858D6C
:1001700090E008958FEF9FEF0895FC01918D228DFF
:10018000892F90E0805C9F4F821B91098F73992784
:1001900008958BE195E00E94BD0021E0892B09F4D0
:1001A00020E0822F089580E090E0892B29F00E94C2
:1001B000C90081110C9400000895FC01A48DA80FC2
:1001C000B92FB11DA35ABF4F2C91848D90E0019699
:1001D0008F739927848FA689B7892C93A089B189B9
:1001E0008C91837080648C93938D848D981306C05A
:1001F0000288F389E02D80818F7D80830895EF92BE
:10020000FF920F931F93CF93DF93EC0181E0888FD0
:100210009B8D8C8D98131AC0E889F989808185FFA0
:1002200015C09FB7F894EE89FF896083E889F98942
:1002300080818370806480839FBF81E090E0DF9144
:10024000CF911F910F91FF90EF900895F62E0B8D97
:1002500010E00F5F1F4F0F731127E02E8C8D8E1152
:100260000CC00FB607FCFACFE889F989808185FFB9
:10027000F5CFCE010E94DD00F1CFEB8DEC0FFD2F0D
:10028000F11DE35AFF4FF0829FB7F8940B8FEA8974
:10029000FB8980818062CFCFCF93DF93EC01888D83
:1002A0008823B9F0AA89BB89E889F9898C9185FDF1
:1002B00003C0808186FD0DC00FB607FCF7CF8C917F
:1002C00085FFF2CF808185FFEDCFCE010E94DD005A
:1002D000E9CFDF91CF9108953FB7F894809117054A
:1002E00090911805A0911905B0911A0526B5A89B03
:1002F00005C02F3F19F00196A11DB11D3FBFBA2FB8
:10030000A92F982F8827BC01CD01620F711D811D77
:10031000911D42E0660F771F881F991F4A95D1F7FC
:100320000895FC0101900020E9F73197AF01481BC7
:10033000590BBC018BE195E00C945F008F929F926A
:10034000AF92BF920F931F93CF93DF93CDB7DEB7DA
:10035000A1970FB6F894DEBF0FBECDBF19A24230F1
:1003600008F44AE08E010F5D1F4F842E912CB12CB2
:10037000A12CA50194010E946406E62FB901CA01CF
:10038000EA30F4F4E05DD801EE938D01232B242BA9
:10039000252B79F790E080E0109719F0CD010E94AD
:1003A0009101A1960FB6F894DEBF0FBECDBFDF91CD
:1003B000CF911F910F91BF90AF909F908F90089514
:1003C000E95CE1CF1F920F920FB60F9211242F9389
:1003D0003F934F935F936F937F938F939F93AF93CD
:1003E000BF93EF93FF938BE195E00E94DD00FF91B7
:1003F000EF91BF91AF919F918F917F916F915F919D
:100400004F913F912F910F900FBE0F901F90189515
:100410001F920F920FB60F9211242F938F939F93D9
:10042000EF93FF93E0912B05F0912C058081E091F3
:100430003105F091320582FD1BC090818091340519
:100440008F5F8F7320913505821741F0E09134055D
:10045000F0E0E55EFA4F958F80933405FF91EF91C0
:100460009F918F912F910F900FBE0F901F90189515
:100470008081F4CF1F920F920FB60F9211242F9309
:100480003F938F939F93AF93BF9380911305909168
:100490001405A0911505B09116053091120523E0C1
:1004A000230F2D3758F50196A11DB11D209312057C
:1004B0008093130590931405A0931505B09316052A
:1004C0008091170590911805A0911905B0911A0512
:1004D0000196A11DB11D8093170590931805A09357
:1004E0001905B0931A05BF91AF919F918F913F91DC
:1004F0002F910F900FBE0F901F90189526E8230F95
:100500000296A11DB11DD2CF789484B5826084BDBE
:1005100084B5816084BD85B5826085BD85B5816007
:1005200085BD80916E00816080936E001092810085
:100530008091810082608093810080918100816040
:100540008093810080918000816080938000809101
:10055000B10084608093B1008091B000816080938D
:10056000B00080917A00846080937A0080917A0054
:10057000826080937A0080917A00816080937A0013
:1005800080917A00806880937A001092C100E09197
:100590002B05F0912C0582E08083E0912705F091F6
:1005A00028051082E0912905F0912A058FEC8083BF
:1005B00010923305E0912F05F091300586E080839D
:1005C000E0912D05F0912E05808180618083E0917E
:1005D0002D05F0912E05808188608083E0912D05A6
:1005E000F0912E05808180688083E0912D05F09147
:1005F0002E0580818F7D80830E946C016B017C01C0
:1006000083EF91E066EE74E0E0E0F1E0208131817B
:10061000428153812417350724F451834083338367
:10062000228332966E177F0789F7019769F7E6EE06
:10063000F4E022EF31E060E070E0CB0140815181D5
:10064000B291A2915A01AA0EBB1E25010B2C000CDF
:1006500066087708640D751D861D971DA0E0B1E042
:1006600050E040E0421753077CF48D909D90A81411
:10067000B9043CF08D0102501109E801B982A88249
:1006800054014F5F5F4FEECFB182A08221503109FC
:10069000A8F64AE00E949E018AEF94E00E94910130
:1006A0000E946C016C197D098E099F090E943B050F
:1006B00020E034E244E759E40E949A046B017C0193
:1006C0008DEF94E00E949101A7019601C701B60148
:1006D0000E945F06882399F085E095E00E949101D1
:1006E0008AEF94E00E949101C0E0D0E02097F1F3FE
:1006F0000E94C9008823D1F30E940000F7CF2FEF9A
:100700003FEF4FE75FE7C701B6010E945F06811127
:100710000DC02FEF3FEF4FE75FE7C701B6010E9423
:10072000950418161CF489E095E0D8CF2FEF3FEF21
:100730004FE75FE4C701B6010E94ED0518161CF4EF
:100740008DE095E0CBCF2FEF3FEF4FE75FECC70198
:10075000B6010E94950487FDF3CF2AE037ED43EA06
:100760005BE3C701B6010E9429044B015C010E94B2
:100770000C056B017C010E943B059B01AC01C5018E
:10078000B4010E9428044B015C014AE0C701B60194
:100790000E949E016EE28BE195E00E94FF0020E046
:1007A00030E040E251E4C501B4010E94F2054B0182
:1007B0005C010E940C056B01F12CE12C4AE0C701A1
:1007C000B6010E949E01C701B6010E943B059B0134
:1007D000AC01C501B4010E94280420E030E040E2F1
:1007E00051E40E94F2050E940C0590E080E04AE08E
:1007F0000E949E0175CFEBE1F5E01382128288EE34
:1008000093E0A0E0B0E084839583A683B7838CEE69
:1008100094E09183808385EC90E09587848784ECD5
:1008200090E09787868780EC90E0918B808B81ECBD
:1008300090E0938B828B82EC90E0958B848B86EC9E
:1008400090E0978B868B118E128E138E148E0895E6
:100850005058BB27AA270E9440040C94B3050E945D
:10086000A50538F00E94AC0520F039F49F3F19F43B
:1008700026F40C94A2050EF4E095E7FB0C949C057D
:10088000E92F0E94C40558F3BA176207730784075B
:10089000950720F079F4A6F50C94E6050EF4E095A2
:1008A0000B2EBA2FA02D0B01B90190010C01CA012A
:1008B000A0011124FF27591B99F0593F50F4503ED5
:1008C00068F11A16F040A22F232F342F4427585FC7
:1008D000F3CF469537952795A795F0405395C9F7DF
:1008E0007EF41F16BA0B620B730B840BBAF0915097
:1008F000A1F0FF0FBB1F661F771F881FC2F70EC036
:10090000BA0F621F731F841F48F487957795679508
:10091000B795F7959E3F08F0B0CF9395880F08F0F4
:100920009927EE0F9795879508950E94780508F40A
:1009300081E008950E94AE040C94B3050E94AC05BA
:1009400058F00E94A50540F029F45F3F29F00C946F
:100950009C0551110C94E7050C94A2050E94C40556
:1009600068F39923B1F3552391F3951B550BBB27DE
:10097000AA2762177307840738F09F5F5F4F220F23
:10098000331F441FAA1FA9F335D00E2E3AF0E0E81A
:1009900032D091505040E695001CCAF72BD0FE2F64
:1009A00029D0660F771F881FBB1F261737074807F8
:1009B000AB07B0E809F0BB0B802DBF01FF279358B0
:1009C0005F4F3AF09E3F510578F00C949C050C94D3
:1009D000E7055F3FE4F3983ED4F3869577956795F6
:1009E000B795F7959F5FC9F7880F911D96958795E5
:1009F00097F90895E1E0660F771F881FBB1F621704
:100A000073078407BA0720F0621B730B840BBA0BC1
:100A1000EE1F88F7E09508950E94CC0588F09F5757
:100A200098F0B92F9927B751B0F0E1F0660F771F12
:100A3000881F991F1AF0BA95C9F714C0B13091F008
:100A40000E94E605B1E008950C94E605672F782F23
:100A50008827B85F39F0B93FCCF3869577956795CD
:100A6000B395D9F73EF490958095709561957F4F39
:100A70008F4F9F4F0895E89409C097FB3EF49095DF
:100A80008095709561957F4F8F4F9F4F9923A9F067
:100A9000F92F96E9BB279395F695879577956795F6
:100AA000B795F111F8CFFAF4BB0F11F460FF1BC03A
:100AB0006F5F7F4F8F4F9F4F16C0882311F096E9CD
:100AC00011C0772321F09EE8872F762F05C066237B
:100AD00071F096E8862F70E060E02AF09A95660F34
:100AE000771F881FDAF7880F9695879597F90895ED
:100AF000990F0008550FAA0BE0E8FEEF161617062F
:100B0000E807F907C0F012161306E407F50798F096
:100B1000621B730B840B950B39F40A2661F0232BAF
:100B2000242B252B21F408950A2609F4A140A6952B
:100B30008FEF811D811D089597F99F6780E870E010
:100B400060E008959FEF80EC089500240A94161643
:100B5000170618060906089500240A9412161306AB
:100B6000140605060895092E0394000C11F4882339
:100B700052F0BB0F40F4BF2B11F460FF04C06F5F55
:100B80007F4F8F4F9F4F089557FD9058440F551F2B
:100B900059F05F3F71F04795880F97FB991F61F0FF
:100BA0009F3F79F087950895121613061406551F76
:100BB000F2CF4695F1DF08C0161617061806991FE2
:100BC000F1CF86957105610508940895E894BB27D7
:100BD00066277727CB0197F908950E94780508F4D6
:100BE0008FEF08950E9405060C94B3050E94A50599
:100BF00038F00E94AC0520F0952311F00C949C0570
:100C00000C94A20511240C94E7050E94C40570F30E
:100C1000959FC1F3950F50E0551F629FF001729FA1
:100C2000BB27F00DB11D639FAA27F00DB11DAA1FB0
:100C3000649F6627B00DA11D661F829F2227B00DFD
:100C4000A11D621F739FB00DA11D621F839FA00D88
:100C5000611D221F749F3327A00D611D231F849FD8
:100C6000600D211D822F762F6A2F11249F5750402F
:100C70009AF0F1F088234AF0EE0FFF1FBB1F661FAA
:100C8000771F881F91505040A9F79E3F510580F073
:100C90000C949C050C94E7055F3FE4F3983ED4F375
:100CA000869577956795B795F795E7959F5FC1F717
:100CB000FE2B880F911D9695879597F908950E94B0
:100CC0007805880B990B0895A1E21A2EAA1BBB1B6D
:100CD000FD010DC0AA1FBB1FEE1FFF1FA217B30708
:100CE000E407F50720F0A21BB30BE40BF50B661F1E
:100CF000771F881F991F1A9469F7609570958095E2
:100D000090959B01AC01BD01CF010895EE0FFF1F2F
:0C0D10000590F491E02D0994F894FFCFB9
:100D1C00B9003900A80168000900420043014500F0
:100D2C0081010400B4001A00B800A700CA003F01FA
:100D3C0025018C00F200E70078004E01C40112017D
:100D4C00EA000B014D00AB0039012201E60109015B
:100D5C009A0038006701C601D700D100F800730172
:100D6C004C01910127003D00A301DF017700230115
:100D7C004C00EB00CE01DF00BD007E018501E901D6
:100D8C002C00EF00CF01BF014800C7016D00AF0080
:100D9C005C0179017801300021014F0149002B00E1
:100DAC008900D400A0008A01BC0082003C006900CC
:100DBC009F012601C700A401DA01E4014E000600E0
:100DCC003F0036007A01AB01370074006300E0008D
:100DDC00E20034012500CD00290020015B00350024
:100DEC005601A2016D01E501BA006A00660111000D
:100DFC00D6011F00A601400014018E01C90092010A
:100E0C005E00180137015E018F003300B901C1018A
:100E1C00E90061007F015700680152000F013E009C
:100E2C00B2010200980182013D011300B7008E004F
:100E3C0096004A00D901F600B601C200D300A90100
:100E4C00E500D6001900CB001901B1011E003A01D2
:100E5C00A50064009901A1016A015600DE010B0096
:100E6C001E01D701B000C40015004A01ED01750147
:100E7C003A00E3004100AA01CE0024000A01D80088
:100E8C004B01FE008D01C5008901AC006201A5017A
:100E9C005500B100FB0024012901170158014B003A
:100EAC00E301CB0128001800600060016C003C01DC
:100EBC00D101F1007101B3014D01D801B5010F0051
:100ECC004F0076006500D40107016F0136019800D0
:100EDC000000AC01E2014801DB002000A40063012A
:100EEC001101B600CA01EA01C5019F00D0016401DD
:100EFC002F01DC003400CC01EF0170006C015001BB
:100F0C0054018B0021005D01F3003B009501880129
:100F1C008500EE015300C8016F0032005B01C10077
:100F2C007B00C0009301AE018F01AD00F4000D00F9
:100F3C001C014601A0013301F201CC007C003B01F5
:100F4C00CD01870116016E014201EE00B4012E00A5
:100F5C007C017B013501BE001301EC004400520101
:100F6C0003010700C201A30077010300A100720175
:100F7C00C8007D001A013100BF002C018C015C00FF
:100F8C0069019E003E01FD000C0151005D009300C3
:100F9C001C002E010E0195009900020176019001B2
:100FAC00BC01D3018000DE00F00062008100C300B0
:100FBC001400ED00DA0080011B01A600E701BD0161
:100FCC009C006B008D00AE00C301720074010E001A
:100FDC009A019B0131011D005A00F7000A0008001C
:100FEC004901D20044018301A2009B000801F500D5
:100FFC00BE01B50022009601840153011F018A0035
:10100C00F3010101470041012D01B0010001040170
:10101C00EB01970040011600BB0110009E012F0050
:10102C00BB007500E60032016101C00145014600BC
:10103C0010019D01DD006501E100D2018601AD01C9
:10104C00E0017E00B200EC011200580054002A00AE
:10105C008B01CF00A8000C005501E4005701FC00E7
:10106C004701F001860005000D01D5016700AA00BB
:10107C00A900DC011B00B3003801FA007A009401CE
:10108C002B0184006600B70183005A011D019C01ED
:10109C0070017F00D5009100F90027018800E10163
:1010AC007300E801C600060150007D01DB01D00091
:1010BC0090005F00B801FF005F015901BA016B019C
:1010CC007100790097015101870094002300010001
:1010DC0043002D002A019D00DD01F101A701C9018A
:1010EC003001D9002801E800920026000501150105
:1010FC0017006E005900AF0100000000FF005F00F8
:10110C008C004C01BD009B00AF000D0A0054656DB6
:10111C00706F3A0A006E616E00696E66006F7666DB
:02112C000000C1
:00000001FF
