:020000040000FA
:100000000C9443000C946B000C946B000C946B00EC
:100010000C946B000C946B000C946B000C946B00B4
:100020000C946B000C946B000C946B000C946B00A4
:100030000C946B000C946B000C946B000C946B0094
:100040000C94A2030C946B000C9412040C94EC031B
:100050000C946B000C946B000C946B000C946B0074
:100060000C946B000C946B00526573756C74616436
:100070006F20646520637573746F20746F74616C96
:100080003A200000940411241FBECFEFD8E0DEBF59
:10009000CDBF13E0A0E0B1E0E6EDF9E002C00590CD
:1000A0000D92A63AB107D9F724E0A6EAB3E001C061
:1000B0001D92AC34B207E1F710E0C3E4D0E004C015
:1000C0002197FE010E94E304C234D107C9F70E94C0
:1000D00044040C94E9040C940000AF92BF92CF92B8
:1000E000DF92EF92FF920F931F93CF93DF936C01F8
:1000F0007B018B01040F151FEB015E01AE18BF08D9
:10010000C017D10759F06991D601ED91FC9101908A
:10011000F081E02DC6010995892B79F7C501DF91A2
:10012000CF911F910F91FF90EF90DF90CF90BF90F4
:10013000AF900895FC01538D448D252F30E0842F1E
:1001400090E0821B930B541710F0CF9608950197FF
:100150000895FC01918D828D981761F0A28DAE0FEC
:10016000BF2FB11D5D968C91928D9F5F9F73928F73
:1001700090E008958FEF9FEF0895FC01918D828D9F
:10018000981731F0828DE80FF11D858D90E008956C
:100190008FEF9FEF0895FC01918D228D892F90E0C4
:1001A000805C9F4F821B91098F73992708958FEA76
:1001B00093E00E94CB0021E0892B09F420E0822FFC
:1001C000089580E090E0892B29F00E94D7008111EA
:1001D0000C9400000895FC01A48DA80FB92FB11D47
:1001E000A35ABF4F2C91848D90E001968F7399276D
:1001F000848FA689B7892C93A089B1898C9183704B
:1002000080648C93938D848D981306C00288F38943
:10021000E02D80818F7D80830895EF92FF920F9370
:100220001F93CF93DF93EC0181E0888F9B8D8C8DA2
:1002300098131AC0E889F989808185FF15C09FB796
:10024000F894EE89FF896083E889F9898081837059
:10025000806480839FBF81E090E0DF91CF911F9108
:100260000F91FF90EF900895F62E0B8D10E00F5F29
:100270001F4F0F731127E02E8C8D8E110CC00FB6FF
:1002800007FCFACFE889F989808185FFF5CFCE0197
:100290000E94EB00F1CFEB8DEC0FFD2FF11DE35A27
:1002A000FF4FF0829FB7F8940B8FEA89FB8980811A
:1002B0008062CFCFCF93DF93EC01888D8823B9F094
:1002C000AA89BB89E889F9898C9185FD03C0808161
:1002D00086FD0DC00FB607FCF7CF8C9185FFF2CFDE
:1002E000808185FFEDCFCE010E94EB00E9CFDF9149
:1002F000CF910895FC0101900020E9F73197AF01FB
:10030000481B590BBC018FEA93E00C946D00CF930E
:10031000DF930E947A01EC018AE693E00E947A0161
:100320008C0F9D1FDF91CF9108958F929F92AF9276
:10033000BF92CF92DF92EF92FF920F931F93CF93D2
:10034000DF93CDB7DEB7A1970FB6F894DEBF0FBE2F
:10035000CDBF6B017C01F7FE41C06DE28FEA93E0F7
:100360000E940D018C0122273327A9012C193D0978
:100370004E095F0919A2CE0181967C019AE0892E6F
:10038000912CA12CB12CCA01B901A50194010E94A4
:10039000C104605DF70162937F01211531054105BC
:1003A000510589F790E080E0309719F0CF010E9465
:1003B0007A01800F911FA1960FB6F894DEBF0FBE91
:1003C000CDBFDF91CF911F910F91FF90EF90DF9004
:1003D000CF90BF90AF909F908F900895AC019B01FC
:1003E00019A28E010F5D1F4F8AE0C82ED12CE12C7F
:1003F000F12CCA01B901A70196010E94C104605DF8
:10040000F80162938F01211531054105510589F7E6
:1004100090E080E0309779F2CF010E947A01CBCF53
:100420004F925F926F927F928F929F92AF92BF9204
:10043000CF92DF92EF92FF920F931F93CF93DF93B0
:10044000CDB7DEB7C054D6400FB6F894DEBF0FBEAE
:10045000CDBFE091BF03F091C00382E08083E091C3
:10046000BB03F091BC031082E091BD03F091BE0389
:100470008FEC80831092C703E091C303F091C40313
:1004800086E08083E091C103F091C20380818061A6
:100490008083E091C103F091C203808188608083F2
:1004A000E091C103F091C203808180688083E09174
:1004B000C103F091C20380818F7D808388E592E043
:1004C000E0E0F1E0DE01A751BC4F01900D920197F1
:1004D000E1F781E793E00E9487011A8219828BE29B
:1004E00091E09C838B8321E030E037FD95C059017A
:1004F000AA0CBB1CE1E0F0E0EC0FFD1FEA0DFB1DB8
:1005000040815181F9013197EE0FFF1F88248394B8
:10051000912C8C0E9D1EE80DF91D60817181FA01F0
:10052000EE0FFF1F09EE402E03E0502E4C0E5D1E15
:100530004E0E5F1EF20160807180CB010197DB01DE
:10054000AA0FBB1FF9EE8F2EF3E09F2E8C0E9D1E7F
:10055000A80DB91D7B01E416F506F4F4CD90DD90ED
:10056000C614D704ACF001968C01000F111FE9EE00
:10057000F3E0EC0FFD1F0E0F1F1FF801808091802C
:10058000D182C0828D0102501109F80191828082CE
:10059000FFEFEF1AFF0ADFCFDC011196AA0FBB1F96
:1005A00009EE802E03E0902E8C0E9D1EA80DB91D25
:1005B0000D911C911197F201E080F180ED92FC9277
:1005C0001183008368177907F4F0225031090296ED
:1005D000841795070CF089CFF9013196EE0FFF1FB4
:1005E00088248394912C8C0E9D1EE80DF91D918317
:1005F00080832E5F3F4FF901EE0FFF1FE80DF91DBD
:100600005183408372CFE1E0F0E0EC0FFD1FEA0D73
:10061000FB1D91838083DBCF8DE693E00E948701F1
:100620007E010FEBE01A09EFF00A8E0107511C4F13
:100630008CE793E00E947A01F801619171918F013A
:10064000072E000C880B990B0E9495018AE693E017
:100650000E947A01E016F10659F78AE693E00E94BB
:100660007A018FE793E00E9487016E01F1ECCF1AC7
:10067000F9EFDF0A8AE2E82EFF24F394812C912C13
:100680005401F60100811181929182916F01080F4E
:10069000191F2801012E000C660877088CE793E0EB
:1006A0000E947A01C301B2010E949501840C951C3D
:1006B000A61CB71CFE01E751FC4F90E080E08E15B0
:1006C0009F0564F421913191021713072CF0DF018B
:1006D00012970D931C9389010196F1CFF6011183B6
:1006E0000083F1E0EF1AF10860F68AE693E00E94D9
:1006F0007A0108E610E0F8016491662341F08FEA80
:1007000093E00E940D010F5F1F4F892BA1F7C501D8
:10071000B401C05CD94F0FB6F894DEBF0FBECDBF99
:10072000DF91CF911F910F91FF90EF90DF90CF90CD
:10073000BF90AF909F908F907F906F905F904F9001
:100740000C9495011F920F920FB60F9211242F93C4
:100750003F938F939F93AF93BF938091AB039091FF
:10076000AC03A091AD03B091AE033091AA0323E096
:10077000230F2D3758F50196A11DB11D2093AA0313
:100780008093AB039093AC03A093AD03B093AE03FF
:100790008091A6039091A703A091A803B091A9030B
:1007A0000196A11DB11D8093A6039093A703A0936A
:1007B000A803B093A903BF91AF919F918F913F91EF
:1007C0002F910F900FBE0F901F90189526E8230FC2
:1007D0000296A11DB11DD2CF1F920F920FB60F929C
:1007E00011242F933F934F935F936F937F938F9336
:1007F0009F93AF93BF93EF93FF938FEA93E00E9491
:10080000EB00FF91EF91BF91AF919F918F917F91FD
:100810006F915F914F913F912F910F900FBE0F906D
:100820001F9018951F920F920FB60F9211242F93BD
:100830008F939F93EF93FF93E091BF03F091C003D9
:100840008081E091C503F091C60382FD1BC09081B9
:100850008091C8038F5F8F732091C903821741F085
:10086000E091C803F0E0E155FC4F958F8093C803F9
:10087000FF91EF919F918F912F910F900FBE0F904D
:100880001F9018958081F4CF789484B5826084BDE0
:1008900084B5816084BD85B5826085BD85B5816084
:1008A00085BD80916E00816080936E001092810002
:1008B00080918100826080938100809181008160BD
:1008C000809381008091800081608093800080917E
:1008D000B10084608093B1008091B000816080930A
:1008E000B00080917A00846080937A0080917A00D1
:1008F000826080937A0080917A00816080937A0090
:1009000080917A00806880937A001092C1000E94E2
:100910001002C0E0D0E02097F1F30E94D7008823B6
:10092000D1F30E940000F7CFEFEAF3E013821282C6
:1009300088EE93E0A0E0B0E084839583A683B7833C
:100940008CE593E09183808385EC90E095878487A4
:1009500084EC90E09787868780EC90E0918B808B89
:1009600081EC90E0938B828B82EC90E0958B848B72
:1009700086EC90E0978B868B118E128E138E148EE0
:100980000895A1E21A2EAA1BBB1BFD010DC0AA1FD0
:10099000BB1FEE1FFF1FA217B307E407F50720F0E8
:1009A000A21BB30BE40BF50B661F771F881F991F63
:1009B0001A9469F760957095809590959B01AC01AC
:1009C000BD01CF010895EE0FFF1F0590F491E02DBA
:1009D0000994F894FFCF4E000E01B8000C00CC0033
:1009E0001F019A002B0119010701DA0033000900E9
:1009F0005C00770097003C0048004B006800C40092
:100A00001101E000A500470008007C008900D80023
:100A1000F1006D003200D500540012013800AF0023
:100A200067001E004A00060094009F00FA002301A0
:100A300023003B00C20014002C0020017100520072
:100A40006A003A001D0190000F01A000C1002600BD
:100A50005A004F002D00BF00F500A600A800DE00E0
:100A6000D70088000B002700310076009800C300F3
:100A7000D200E400EB00370004004D0081002200AA
:100A8000DC003F006E0080002901BB0027017300DD
:100A90008D00F7007D0018004C0004019600D9007D
:100AA00007008E00D30034003D00B6006600AD00A4
:100AB0001B01AB002601B200410001015D00FB00FB
:100AC000E7001A016500A2001701100119001601C4
:100AD000110040001C012E000501E1002A00510018
:100AE000E200B000B40003007B00360009010801F9
:100AF0000A010D00920078008700E800C600690036
:100B0000ED006F00FD002F005300300012002800A0
:100B1000A300CD00EA0093008400D400CB003E0087
:100B20004600E600C90043002501F800F400130068
:100B3000AE00860018016400DF008A00EF00A40008
:100B4000FF008F00140156004400420045001501CB
:100B50005F00A10029001C0015002A019E009900D9
:100B6000CF00C700EC00DD003500DB00AC00AA00C0
:100B7000CE00E500000110002400B30059008C00F5
:100B8000F60060009100210050000F001A00720072
:100B9000850061000C017F009D000B01EE00A900A3
:100BA000E9007E0013019500B1007A00FE002B00E1
:100BB0006B0022012401490016008B00BE001D00BD
:100BC0000D01F300BD006C0020002101C50079007B
:100BD000E300F20082000201F0005B003900030133
:100BE000A70001002500000083000E000200B700EE
:100BF000C800CA00D0000500C0009C001B00D60041
:100C000070000A007500BC001E0128015500570045
:100C100058001700B5005E000601F9009B00630054
:100C20006200FC00B900D100BA001F00740000008F
:100C300000000D016D009A005A01CB00A900BD0013
:100C40000D0A002046494D20515549434B534F5200
:100C50005400202000526573756C7461646F2064C9
:100C600065206361646120637573746F20706F72B7
:0C0C700020636F6E6578616F3A20000011
:107E0000112484B714BE81FFF0D085E080938100F7
:107E100082E08093C00088E18093C10086E0809377
:107E2000C20080E18093C4008EE0C9D0259A86E02C
:107E300020E33CEF91E0309385002093840096BBD3
:107E4000B09BFECF1D9AA8958150A9F7CC24DD24C4
:107E500088248394B5E0AB2EA1E19A2EF3E0BF2EE7
:107E6000A2D0813461F49FD0082FAFD0023811F036
:107E7000013811F484E001C083E08DD089C08234E0
:107E800011F484E103C0853419F485E0A6D080C0E4
:107E9000853579F488D0E82EFF2485D0082F10E0AE
:107EA000102F00270E291F29000F111F8ED06801E7
:107EB0006FC0863521F484E090D080E0DECF843638
:107EC00009F040C070D06FD0082F6DD080E0C81688
:107ED00080E7D80618F4F601B7BEE895C0E0D1E017
:107EE00062D089930C17E1F7F0E0CF16F0E7DF06D8
:107EF00018F0F601B7BEE89568D007B600FCFDCFD4
:107F0000A601A0E0B1E02C9130E011968C91119780
:107F100090E0982F8827822B932B1296FA010C0160
:107F200087BEE89511244E5F5F4FF1E0A038BF0790
:107F300051F7F601A7BEE89507B600FCFDCF97BE46
:107F4000E89526C08437B1F42ED02DD0F82E2BD052
:107F50003CD0F601EF2C8F010F5F1F4F84911BD097
:107F6000EA94F801C1F70894C11CD11CFA94CF0C13
:107F7000D11C0EC0853739F428D08EE10CD085E9AC
:107F80000AD08FE07ACF813511F488E018D01DD067
:107F900080E101D065CF982F8091C00085FFFCCF94
:107FA0009093C60008958091C00087FFFCCF809118
:107FB000C00084FD01C0A8958091C6000895E0E648
:107FC000F0E098E1908380830895EDDF803219F02E
:107FD00088E0F5DFFFCF84E1DECF1F93182FE3DFCA
:107FE0001150E9F7F2DF1F91089580E0E8DFEE27F6
:047FF000FF270994CA
:027FFE00040479
:00000001FF
