:020000040000FA
:100000000C9449000C9471000C9471000C947100D4
:100010000C9471000C9471000C9471000C9471009C
:100020000C9471000C9471000C9471000C9471008C
:100030000C9471000C9471000C9471000C9471007C
:100040000C94F1010C9471000C9461020C943B022D
:100050000C9471000C9471000C9471000C9471005C
:100060000C9471000C94710020526573756C74616E
:10007000646F20646520637573746F20746F74619E
:100080006C3A20200020696E6963696F750A000070
:10009000AC0311241FBECFEFD8E0DEBFCDBF11E00F
:1000A000A0E0B1E0E6E0F8E002C005900D92AC31CE
:1000B000B107D9F721E0ACE1B1E001C01D92A23C4B
:1000C000B207E1F710E0C9E4D0E004C02197FE01D7
:1000D0000E94FB03C834D107C9F70E9493020C9415
:1000E00001040C940000AF92BF92CF92DF92EF9286
:1000F000FF920F931F93CF93DF936C017B018B01D2
:10010000040F151FEB015E01AE18BF08C017D10721
:1001100059F06991D601ED91FC910190F081E02DAB
:10012000C6010995892B79F7C501DF91CF911F9100
:100130000F91FF90EF90DF90CF90BF90AF90089518
:10014000FC01538D448D252F30E0842F90E0821BDD
:10015000930B541710F0CF96089501970895FC0162
:10016000918D828D981761F0A28DAE0FBF2FB11DBA
:100170005D968C91928D9F5F9F73928F90E0089512
:100180008FEF9FEF0895FC01918D828D981731F0CC
:10019000828DE80FF11D858D90E008958FEF9FEF20
:1001A0000895FC01918D228D892F90E0805C9F4FF6
:1001B000821B91098F739927089585E291E00E942F
:1001C000D10021E0892B09F420E0822F089580E0FE
:1001D00090E0892B29F00E94DD0081110C94000031
:1001E0000895FC01A48DA80FB92FB11DA35ABF4FCC
:1001F0002C91848D90E001968F739927848FA68926
:10020000B7892C93A089B1898C91837080648C9379
:10021000938D848D981306C00288F389E02D808128
:100220008F7D80830895EF92FF920F931F93CF935A
:10023000DF93EC0181E0888F9B8D8C8D98131AC021
:10024000E889F989808185FF15C09FB7F894EE8908
:10025000FF896083E889F989808183708064808365
:100260009FBF81E090E0DF91CF911F910F91FF90B0
:10027000EF900895F62E0B8D10E00F5F1F4F0F7358
:100280001127E02E8C8D8E110CC00FB607FCFACF13
:10029000E889F989808185FFF5CFCE010E94F100C0
:1002A000F1CFEB8DEC0FFD2FF11DE35AFF4FF082E4
:1002B0009FB7F8940B8FEA89FB8980818062CFCF4A
:1002C0000F931F93CF93DF938C01D0E0C0E0F80130
:1002D000EC0FFD1F6491662341F085E291E00E94DE
:1002E0001301892B11F02196F2CFCE01DF91CF912E
:1002F0001F910F910895CF93DF93EC01888D882390
:10030000B9F0AA89BB89E889F9898C9185FD03C078
:10031000808186FD0DC00FB607FCF7CF8C9185FF5D
:10032000F2CF808185FFEDCFCE010E94F100E9CFB1
:10033000DF91CF9108958F929F92AF92BF920F93CA
:100340001F93CF93DF93CDB7DEB7A1970FB6F89485
:10035000DEBF0FBECDBF19A2423008F44AE08E01C5
:100360000F5D1F4F842E912CB12CA12CA50194015F
:100370000E94D903E62FB901CA01EA3044F5E05DD5
:10038000D801EE938D01232B242B252B79F790E0B8
:1003900080E0109769F0FD0101900020E9F73197A6
:1003A000AF014A1B5B0BBD0185E291E00E94730027
:1003B000A1960FB6F894DEBF0FBECDBFDF91CF91EF
:1003C0001F910F91BF90AF909F908F900895E95C1F
:1003D000D7CF42E050E068E171E085E291E00C9413
:1003E00073001F920F920FB60F9211242F933F9319
:1003F0008F939F93AF93BF9380912101909122019E
:10040000A0912301B09124013091200123E0230F1A
:100410002D3758F50196A11DB11D20932001809321
:10042000210190932201A0932301B0932401809194
:100430001C0190911D01A0911E01B0911F01019618
:10044000A11DB11D80931C0190931D01A0931E015D
:10045000B0931F01BF91AF919F918F913F912F91C9
:100460000F900FBE0F901F90189526E8230F02964D
:10047000A11DB11DD2CF1F920F920FB60F92112462
:100480002F933F934F935F936F937F938F939F939C
:10049000AF93BF93EF93FF9385E291E00E94F10049
:1004A000FF91EF91BF91AF919F918F917F916F914C
:1004B0005F914F913F912F910F900FBE0F901F9022
:1004C00018951F920F920FB60F9211242F938F93AE
:1004D0009F93EF93FF93E0913501F0913601808176
:1004E000E0913B01F0913C0182FD1BC09081809125
:1004F0003E018F5F8F7320913F01821741F0E091A1
:100500003E01F0E0EB5DFE4F958F80933E01FF9141
:10051000EF919F918F912F910F900FBE0F901F9091
:1005200018958081F4CF789484B5826084BD84B5B9
:10053000816084BD85B5826085BD85B5816085BDDE
:1005400080916E00816080936E0010928100809196
:10055000810082608093810080918100816080931E
:100560008100809180008160809380008091B10043
:1005700084608093B1008091B00081608093B0006E
:1005800080917A00846080937A0080917A00826002
:1005900080937A0080917A00816080937A008091C4
:1005A0007A00806880937A001092C100E091350152
:1005B000F091360182E08083E0913101F0913201C7
:1005C0001082E0913301F09134018FEC808310921E
:1005D0003D01E0913901F0913A0186E08083E0919C
:1005E0003701F0913801808180618083E09137018B
:1005F000F0913801808188608083E0913701F0912B
:100600003801808180688083E0913701F091380162
:1006100080818F7D808385E890E00E9460010E9448
:10062000E901809100019091010120910201309136
:1006300003018217930744F43093010120930001D2
:100640009093030180930201809102019091030134
:1006500020910401309105018217930744F43093EF
:10066000030120930201909305018093040180917E
:100670000001909101012091020130910301821744
:10068000930744F4309301012093000190930301F8
:100690008093020180910201909103012091040155
:1006A000309105018217930744F43093030120939E
:1006B00002019093050180930401C0910401D0913F
:1006C00005018091020190910301C80FD91FBE015D
:1006D0000D2E000C880B990B4AE00E949B010E9492
:1006E000E9018091000190910101C817D9072CF010
:1006F000D0930101C0930001EC01D0930301C0939A
:1007000002018091000190910101C80FD91FBE0123
:100710000D2E000C880B990B4AE00E949B010E9451
:10072000E901D0930101C093000188E690E00E94A6
:1007300060014AE060E070E0CB010E949B010E94F2
:10074000E901C0E0D0E02097F1F30E94DD008823AA
:10075000D1F30E940000F7CFE5E2F1E013821282AC
:1007600088EE93E0A0E0B0E084839583A683B7830E
:100770008AE091E09183808385EC90E0958784877F
:1007800084EC90E09787868780EC90E0918B808B5B
:1007900081EC90E0938B828B82EC90E0958B848B44
:1007A00086EC90E0978B868B118E128E138E148EB2
:1007B0000895A1E21A2EAA1BBB1BFD010DC0AA1FA2
:1007C000BB1FEE1FFF1FA217B307E407F50720F0BA
:1007D000A21BB30BE40BF50B661F771F881F991F35
:1007E0001A9469F760957095809590959B01AC017E
:1007F000BD01CF010895EE0FFF1F0590F491E02D8C
:100800000994F894FFCF280014001E000000000097
:1008100013017300A0007B01D100AF00C3000D0ADB
:020820000000D6
:107E0000112484B714BE81FFF0D085E080938100F7
:107E100082E08093C00088E18093C10086E0809377
:107E2000C20080E18093C4008EE0C9D0259A86E02C
:107E300020E33CEF91E0309385002093840096BBD3
:107E4000B09BFECF1D9AA8958150A9F7CC24DD24C4
:107E500088248394B5E0AB2EA1E19A2EF3E0BF2EE7
:107E6000A2D0813461F49FD0082FAFD0023811F036
:107E7000013811F484E001C083E08DD089C08234E0
:107E800011F484E103C0853419F485E0A6D080C0E4
:107E9000853579F488D0E82EFF2485D0082F10E0AE
:107EA000102F00270E291F29000F111F8ED06801E7
:107EB0006FC0863521F484E090D080E0DECF843638
:107EC00009F040C070D06FD0082F6DD080E0C81688
:107ED00080E7D80618F4F601B7BEE895C0E0D1E017
:107EE00062D089930C17E1F7F0E0CF16F0E7DF06D8
:107EF00018F0F601B7BEE89568D007B600FCFDCFD4
:107F0000A601A0E0B1E02C9130E011968C91119780
:107F100090E0982F8827822B932B1296FA010C0160
:107F200087BEE89511244E5F5F4FF1E0A038BF0790
:107F300051F7F601A7BEE89507B600FCFDCF97BE46
:107F4000E89526C08437B1F42ED02DD0F82E2BD052
:107F50003CD0F601EF2C8F010F5F1F4F84911BD097
:107F6000EA94F801C1F70894C11CD11CFA94CF0C13
:107F7000D11C0EC0853739F428D08EE10CD085E9AC
:107F80000AD08FE07ACF813511F488E018D01DD067
:107F900080E101D065CF982F8091C00085FFFCCF94
:107FA0009093C60008958091C00087FFFCCF809118
:107FB000C00084FD01C0A8958091C6000895E0E648
:107FC000F0E098E1908380830895EDDF803219F02E
:107FD00088E0F5DFFFCF84E1DECF1F93182FE3DFCA
:107FE0001150E9F7F2DF1F91089580E0E8DFEE27F6
:047FF000FF270994CA
:027FFE00040479
:00000001FF
